:100000000C942E1A0C94581A0C94581A0C94581AD2
:100010000C94581A0C94581A0C94581A0C94581A98
:100020000C94581A0C94581A0C94581A0C94581A88
:100030000C94581A0C9422340C94581A0C94581A94
:100040000C94581A0C94F2CB0C94534F0C94581AED
:100050000C9437980C9402980C94581A0C94581AD3
:100060000C94581A0C94581A0C94581A0C94581A48
:100070000C94581A0C94581A0C94581A0C94581A38
:100080000C94581A0C94581A0C94581AC24EC74E15
:10009000CC4ED64E044F044FE04EE84EF04EFA4E92
:1000A000D856DB56CE56D256F256F256DF56E356A7
:1000B000E956ED5600CBAAC9E1C93CCBE1C9E1C97B
:1000C000E1C9E1C9E1C9E1C9E1C9E1C9E1C9E1C9E0
:1000D000E1C9E1C9E1C9E1C9E1C9E1C9E1C9E1C9D0
:1000E000E1C9E1C9E1C9E1C9E1C9E1C9E1C9E1C9C0
:1000F00036CBE1C9E1C9E1C9E1C9E1C9E1C9E1C959
:10010000E1C90FCBE1C9E1C9E1C9E1C9E1C9E1C96F
:10011000E1C9E1C9E1C9E1C953CBDEC9084AD73B0E
:100120003BCE016E84BCBFFDC12F3D6C74319ABDC6
:1001300056833DDA3D00C77F11BED9E4BB4C3E91EA
:100140006BAAAABE000000803F05A84CCDB2D44ED9
:10015000B93836A9020C50B9918688083CA6AAAADB
:100160002ABE000000803F004E414E494E4954597E
:10017000494E46CDCCCC3D0AD7233C17B7D1387772
:10018000CC2B329595E6241FB14F0A000020410088
:1001900000C84200401C4620BCBE4CCA1B0E5AAED2
:1001A000C59D74434F4D4D554E49434154494F4EA3
:1001B0000044525952554E004552524F5253004935
:1001C0004E464F004543484F00496E76616C696466
:1001D0002065787472756465720A00454550524F07
:1001E0004D204F4B0A00486F6D6520257325732500
:1001F00073206669727374002066697273740A00F2
:10020000486F6D6520004F6666736574732061707A
:10021000706C696564004572723A20546F6F206695
:1002200061722100546F6F206661722066726F6D7B
:10023000207265666572656E636520706F696E74A5
:100240000A00FFFFFF0000000000000000000000A7
:100250000064697300656E0043290A0061626C6581
:100260006420286D696E2074656D702000436F6C8A
:10027000642065787472756465732061726520000E
:10028000496E76616C696420657874727564657214
:100290000A0020643A0020693A0020703A002046A3
:1002A0006C6F773A20004F4646004F4E00205A00B0
:1002B000205900580020204D61783A2000205A0033
:1002C000205900580020204D696E3A2000536F6677
:1002D0007420656E6473746F70733A20002054004C
:1002E000205200416363656C65726174696F6E3A98
:1002F0002050004D31343520533C696E6465783EA2
:10030000206F7574206F662072616E6765202830DB
:100310002D31290A002F2F20004348414D424552DC
:100320005F54454D5045524154555245004D4F5430
:10033000494F4E5F4D4F44455300544845524D413F
:100340004C5F50524F54454354494F4E0041555411
:100350004F5245504F52545F53445F53544154558C
:10036000530050524F4D50545F535550504F5254BC
:1003700000454D455247454E43595F504152534504
:100380005200434153455F4C494748545F425249EC
:100390004748544E45535300544F47474C455F4CD4
:1003A000494748545300534F4654574152455F50B4
:1003B0004F574552004255494C445F5045524345C2
:1003C0004E54004C4556454C494E475F44415441BC
:1003D000005A5F50524F4245004155544F4C4556CC
:1003E000454C005052494E545F4A4F420050524FC4
:1003F0004752455353004155544F5245504F525464
:100400005F54454D5000564F4C554D45545249434D
:1004100000454550524F4D0042494E4152595F46AA
:10042000494C455F5452414E534645520053455244
:1004300049414C5F584F4E5F584F4646004649521F
:100440004D574152455F4E414D453A4D61726C6981
:100450006E206275676669782D322E302E782028DE
:100460004769746875622920534F555243455F436D
:100470004F44455F55524C3A68747470733A2F2F4D
:100480006769746875622E636F6D2F4D61726C6958
:100490006E4669726D776172652F4D61726C696E1F
:1004A0002050524F544F434F4C5F56455253494F83
:1004B0004E3A312E30204D414348494E455F545904
:1004C00050453A57616E68616F2069332045585432
:1004D00052554445525F434F554E543A312055557D
:1004E00049443A33333666386434352D6639383505
:1004F0002D346462352D616439322D3661373668AA
:10050000633864616361700A0057616E68616F20CF
:100510006933204F46462E006F6B0020573A004249
:10052000656420636F6F6C696E672E2E2E004265C6
:10053000642068656174696E672E2E2E004D31311E
:10054000332053006F666600C401BF01B801B101DA
:10055000A30144454255473A0020573A00452043FD
:100560006F6F6C696E672E2E2E0045204865617492
:10057000696E672E2E2E000A53746174733A2046FA
:10058000696C616D656E7420757365643A20002C2A
:10059000204C6F6E67657374206A6F623A20005456
:1005A0006F74616C2074696D653A200053746174D6
:1005B000733A20002C204661696C65643A20002C57
:1005C0002046696E69736865643A20005072696EEE
:1005D00074733A200053746174733A200050726F40
:1005E0007465637465642050696E0A005072696EA8
:1005F000742074696D653A20002E0A0044656C65AC
:1006000074696F6E206661696C65642C2046696C44
:10061000653A200046696C652064656C65746564A4
:100620003A00286E6F2066696C6529004375727206
:10063000656E742066696C653A20005344207072C0
:10064000696E74696E67206279746520004E6F74FC
:10065000205344207072696E74696E670A00456E9B
:10066000642066696C65206C6973740A0042656772
:10067000696E2066696C65206C6973740A004E6F40
:10068000206D6F76652E00436C69636B20746F205C
:10069000726573756D652E2E2E00000048420000B5
:1006A000484200008040536C6565702E2E2E004736
:1006B000322F47332062616420706172616D65740E
:1006C0006572730A0020746F6F206C6F6E6720650F
:1006D0007874727573696F6E2070726576656E746A
:1006E00065640A0020636F6C6420657874727573AA
:1006F000696F6E2070726576656E7465640A002499
:10070000F4D43050C38E20C2A24017828B701112D5
:100710007A910D816CD90AA861E108C75866076112
:100720005143061E4B5D05C145A7041A411104093A
:100730003D9803713931034036DB0265339102D4B1
:10074000305402802E1D02632CEE01752AC501B0C3
:1007500028A001102781018F2564012B244B01E083
:10076000223401AC211F018D200D01801FFC00846B
:100770001EED00971DDF00B81CD200E61BC600204E
:100780001BBC00641AB200B219A8000A19A0006AC2
:10079000189900D117910040178B00B516840031CD
:1007A000167E00B31579003A157300C7146F005810
:1007B000146A00EE1366008813630025135E00C7F9
:1007C000125B006C12570015125400C111510070D9
:1007D000114F0021114B00D61049008D10470046E3
:1007E00010440002104200C00F4000800F3E004243
:1007F0000F3C00060F3B00CB0E3800930E37005C19
:100800000E3500270E3400F30D3200C10D3100907B
:100810000D3000600D2E00320D2D00050D2C00D97D
:100820000C2B00AE0C2900850C29005C0C27003530
:100830000C27000E0C2600E80B2400C40B2400A09B
:100840000B23007D0B23005A0B2100390B210018CC
:100850000B2000F80A1F00D90A1E00BB0A1E009DCB
:100860000A1D00800A1D00630A1C00470A1B002C99
:100870000A1B00110A1A00F7091A00DD091900C441
:10088000091900AB091900920917007B09180063C8
:100890000917004C09160036091600200916000A2F
:1008A000091500F5081500E0081400CC081400B87C
:1008B000081400A4081400900813007D0812006BAF
:1008C00008130058081200460812003408110023CB
:1008D0000811001208110001081100F0071000E0D3
:1008E000071000D0071000C0071000B0070F00A1CC
:1008F00007100091070E0083070F0074070F0065B3
:10090000070E0057070E0049070E003B070D002E8B
:10091000070E0020070D0013070D0006070D00F954
:10092000060C00ED060D00E0060C00D4060C00C815
:10093000060C00BC060C00B0060C00A4060B0099C7
:10094000060C008D060B0082060B0077060B006C70
:10095000060B0061060A0057060B004C060A00420F
:10096000060A0038060A002E060A0024060A001AA3
:10097000060A001006090007060A00FD050900F432
:10098000050900EB050900E2050900D9050900D0B9
:10099000050900C7050900BE050900B5050800AD39
:1009A000050800A50509009C050800940508008CB1
:1009B000050800840508007C050800740508006C23
:1009C000050700650508005D050700560508004E8F
:1009D00005070047050700400508003805070031F6
:1009E0000507002A050700230507001C0506001659
:1009F0000507000F0507000805060002050700FBB4
:100A0000040600F5040700EE040600E8040600E210
:100A1000040700DB040600D5040600CF040600C965
:100A2000040600C3040600BD040600B7040600B1B6
:100A3000040500AC040600A6040600A00405009B03
:100A400004060095040500900406008A040500854C
:100A5000040500800406007A040500750405007092
:100A60000405006B04050066040500610405005CD4
:100A700004050057040500520405004D0405004814
:100A8000040500430405003E0404003A0405003553
:100A9000040500300404002C04050027040400238E
:100AA0000405001E0404001A0404001604050011C5
:100AB0000404000D040400090405000404040000FB
:100AC000040400FC030400F8030400F4030400F031
:100AD000030400EC030400E8030400E4030400E062
:100AE000030400DC030400D8030400D4030400D092
:100AF000030400CC030400C8030300C5030300245F
:100B0000F404D9201BC40C5C0E9804C4095F026570
:100B1000077101F405F900FB04B30048048700C124
:100B20000369005803550003034500BE023A0084E0
:100B300002310053022A002902250004022000E4A9
:100B4000011C00C8011900AF0117009801140084AE
:100B5000011300710110006101100051010E0043EA
:100B6000010D0036010B002B010B0020010B0015BD
:100B70000109000C01090003010800FB000800F353
:100B8000000800EB000700E4000600DE000600D8C5
:100B9000000600D2000600CC000500C7000500C218
:100BA000000500BD000400B9000400B5000400B158
:100BB000000400AD000400A9000400A5000300A289
:100BC0000003009F0004009B0003009800030095B1
:100BD00000020093000300900003008D0002008BD0
:100BE00000030088000200860002008400030081E8
:100BF0000002007F0002007D0002007B00020079FD
:100C0000000200770001007600020074000200720A
:100C1000000100710002006F0002006D0001006C15
:100C20000002006A0001006900020067000100661E
:100C30000001006500010064000200620001006123
:100C4000000100600001005F0002005D0001005C27
:100C50000001005B0001005A00010059000100582A
:100C6000000100570001005600010055000100542A
:100C70000001005300000053000100520001005128
:100C8000000100500001004F0001004E0000004E26
:100C90000001004D0001004C0001004B0000004B22
:100CA0000001004A0001004900010048000000481E
:100CB0000001004700010046000000460001004519
:100CC0000000004500010044000100430000004313
:100CD000000100420000004200010041000000410C
:100CE000000100400001003F0000003F0001003E05
:100CF0000000003E0001003D0000003D0001003CFE
:100D00000000003C0000003C0001003B0000003BF4
:100D10000001003A0000003A0001003900000039EB
:100D200000010038000000380000003800010037E2
:100D300000000037000100360000003600000036D9
:100D400000010035000000350000003500010034CE
:100D500000000034000000340001003300000033C4
:100D600000000033000100320000003200000032B9
:100D700000010031000000310000003100010030AE
:100D800000000030000000300001002F0000002FA4
:100D90000000002F0000002F0001002E0000002E98
:100DA0000000002E0001002D0000002D0000002D8D
:100DB0000000002D0001002C0000002C0000002C81
:100DC0000000002C0001002B0000002B0000002B75
:100DD0000000002B0001002A0000002A0000002A69
:100DE0000000002A0001002900000029000000295D
:100DF0000000002900000029000100280000002850
:100E00000000002800000028000000280001002742
:100E10000000002700000027000000270000002736
:100E20000001002600000026000000260000002629
:100E3000000000260001002500000025000000251C
:100E4000000000250000002500000025000100240E
:100E50000000002400000024000000240000002402
:100E600000010023000000230000002300000023F5
:100E700000000023000000230000002300010022E6
:100E800000000022000000220000002200000022DA
:100E900000000022000100210000002100000021CC
:100EA00000000021000000210000002100000021BE
:100EB00000010020000000200000002000000020B1
:100EC00000000020000000200000002000000020A2
:100ED0000001001F0000001F0000001F0000001F95
:100EE0000000001F0000001F0000001F0001001E86
:100EF0000000001E0000001E0000001E0000000494
:100F00003700001E290000511B000058100000107F
:100F1000090000CC040000780200004101000046F6
:100F2000696C2E204469612E0046696C2E2044694C
:100F3000612E004F6666004F6E004520696E206D81
:100F40006D5E3300416476616E6365642053657441
:100F500074696E677300200820466163740020087E
:100F60002046616374002008204D6178002008202D
:100F70004D6178002008204D696E002008204D69E1
:100F80006E004F6666004F6E004175746F74656D3C
:100F90007000416476616E636564205365747469A2
:100FA0006E67730025753A2530327500253032752D
:100FB0003A253032750025756420253032753A2582
:100FC00030327500202020202020200020202020EA
:100FD000001FE020102010201010201020201020D2
:100FE0001030300840048003001FE03FF03FF03F26
:100FF000F01FE01FE03FF03FF03FF00FC00780031D
:10100000003FFFF038007030FC3020FC10207810DA
:101010002030102C00D02E31D02F7BD02F7BD02E23
:1010200031D02C00D020301020781020FC1030FC63
:10103000303800703FFFF03FFFF0380070318630ED
:101040002387102787902F87D02F03D020301020A0
:1010500078102078102030102F03D02F87D02787CA
:10106000902387103186303800703FFFF01FFFF863
:101070001FFFF80410400208200208200410400856
:101080002080104100104100082080041040000022
:10109000001FFFF81FFFF84361726420696E7365DB
:1010A00072746564004C6F6164696E672073657467
:1010B00074696E67732066726F6D2053440A002056
:1010C00000000000000000000000000000000440DC
:1010D000000000000000000000000000000002808E
:1010E00000000000000000000000000000000100FF
:1010F000000003800000000000000000000000006D
:10110000000003800000000000000000000000005C
:1011100000000100000000000000000000000000CE
:1011200000000100000000000000000000000000BE
:1011300000000100000000000000000000000000AE
:10114000000001000000000000000000000000009E
:10115000000007C00000000F000100000F000000A9
:1011600001FFFFFE000000088081000008800000F1
:1011700003FFFFFFFFC00008BDC13C1E08BD2000EB
:1011800003000003FC40000F248124020F252000EF
:101190000300000004780008A49D25DEE8A4C00038
:1011A0000300000004080008A481241208A5200000
:1011B000033FFF000408000F3CC1241E0F3D200028
:1011C000033FFFFF84080000000000000000000053
:1011D000033007FFC408000000000000000000000A
:1011E00003300000C4080000000000000000000000
:1011F0000333C000C408808000000000000000002D
:101200000333C000C40980C00000000000000000DB
:101210000333C000C40B80E00000000000000000A9
:101220000333C1FCC40B80E3C200000200002000B5
:101230000333C1FCC40BE3E20200002000002000E5
:101240000333C1FCC40BE3E20E48EF74F3CF20007C
:101250000333C000C409FFC3D249012492412000D6
:1012600003300000C408FF8212490F24924F200768
:10127000FF300000C4087F02124909249249200F60
:10128000FF300000C4083C03CE78EF34F24F200F4B
:10129000FF300000C4083C00000000000000000F08
:1012A0008731C01CC47FFE00000000000000000762
:1012B0000731E03CC47FFE00000000000000001F7A
:1012C0008330FFF8C47FFE00000000000000003FF4
:1012D000C3303FE0CC7FFC00000000000000007F36
:1012E000E33FC000CC7FF80000000000000000F8E1
:1012F000F31FFF00CC08000007004000400000F88A
:101300007300FFFFCC08000004804004000000F0E0
:10131000730001FF8C080000049E71EE8DC0007008
:10132000630000000C08000007124924910000200F
:10133000430000000C0800000492492490C0000003
:10134000031F00000C080000049249249040000094
:10135000031100000C080000049E71E68DC000001F
:10136000031100000C080000000000000000000055
:10137000031107000C08000000000000000000003E
:10138000031F07F80C080000000000000000000028
:101390000300007F0C0800000000000000000000B7
:1013A000030000070C08000000000000000000001F
:1013B000030000000C080000000000000000000016
:1013C00003F000000C080000000000000000000016
:1013D00001FF80000C1020002000800000000000B1
:1013E00001FFF8000C6020020000800000000000F7
:1013F00001FFFFC00CE038F74F3CE3D20778000054
:1014000001FFFFFE0DE024924904925208080000FB
:1014100001FFFFFFFFE02492493C924C0878000056
:1014200000FFFFFFFFE02492492492520848000089
:10143000000FFFFFFFE038F3493CE3D2477800009C
:101440000000FFFFFFC000000000000000000000DF
:1014500000000FFFFF8000000000000000000000FF
:10146000000000FFFF01B6DB6DB6DB6DB6DB0000F0
:101470000000000FFE00000000000000000000005F
:1014800000000000FC0000000000000000000080E0
:10149000000000000000000000000000000001400B
:1014A000000000000000000000000000000002201A
:1014B0000000000000000000000000000000040127
:1014C000FFFFFFFFFFFFFFFFFFFFFFFFFF0FFFFF1C
:1014D000FFFFFFFFFFFFFFFFFFFFFF1E00000000F9
:1014E00000000000000007FFFF38000000000000BF
:1014F0000000000003FFFF7000000000000000007B
:10150000000001FFFF60000000000000000000007C
:1015100000FFFF6000000000000000000000007FEE
:10152000FFC000000000000000007800003FFFC086
:101530000FC0FC00000000007818001FFFC03FE152
:10154000FF0000000000783C000FFFC07FF3FF8029
:1015500000000000783C0007FFC0FFFFFFC0000054
:101560000000783C0003FFC1F87F87E00000000026
:1015700078000001FFC1F03F03E0000000007800A8
:101580000000FFC1E01E01E01F0003E0783C03F013
:101590007FC1E01E01E07FC00FF8783C07FC3FC12F
:1015A000E01E01E1FFE01FFC783C0FFE1FC1E01EC2
:1015B00001E3FFF03FFE783C1FFE0FC1E01E01E398
:1015C000F3F83F3E783C3F3F07C1E01E01E7E0FCF7
:1015D0007C1F783C3E1F07C1E01E01E7C07C7C0FEA
:1015E000783C3C0F03C1E01E01E7807C780F783C1B
:1015F0003C0F03C1E01E01E7803C7800783C3C0FC3
:1016000003C1E01E01E7803C7800783C3C0F03C139
:10161000E01E01E7803C7800783C3C0F03C1E01EEF
:1016200001E7C03C7800783C3C0F03C1E01E01E3B9
:10163000E03C78007C3C3C0F03C1E01E01E3FF3F2F
:10164000F8007FBC3C0F03C1E01E01E1FF3FF80042
:101650003FBFFC0F03C1E01E01E0FF3FF8001FBFCA
:10166000FC0F03C1E01E01E07F3FF8000FBFFC0F3D
:1016700003600000000000000000000000000760A0
:1016800000000000000000000000000006700000E4
:10169000000000000000000000000E380000000004
:1016A00000000000000000001C1E00000000000000
:1016B000000000000000780FFFFFFFFFFFFFFFFFAB
:1016C000FFFFFFFFF001FFFFFFFFFFFFFFFFFFFF37
:1016D000FFFF802020506C616E6E657242756666F9
:1016E000657242797465733A200020467265652000
:1016F0004D656D6F72793A2000436F6D70696C654E
:10170000643A204A756C20203120323031390A0089
:10171000207C20417574686F723A204D6174746842
:10172000657720506965726365792C20426F742D4E
:10173000496E2D612D426F7820456475636174692F
:101740006F6E616C20526F626F746963730A00324E
:101750003031392D30372D303100204C61737420F9
:10176000557064617465643A2000627567666978D3
:101770002D322E302E780A004D61726C696E002079
:10178000536F6674776172652052657365740A00E1
:10179000205761746368646F672052657365740ACB
:1017A000002042726F776E206F75742052657365EA
:1017B000740A002045787465726E616C20526573FE
:1017C00065740A00506F77657255700A0073746112
:1017D00072740A006175746F25632E6700657272FA
:1017E0006F722077726974696E6720746F20666902
:1017F0006C650A00446F6E6520736176696E6720C0
:1018000066696C652E0A004D323900456E6473744A
:101810006F707320256320256320256320256300D6
:10182000205A3A0020593A0020583A00656E6473F5
:10183000746F7073206869743A20004732385859C1
:1018400000204500205A00205900204D39322058F0
:101850000020496E76616C696420657874727564E5
:10186000657220004361703A00220A00656E71754E
:10187000657565696E672022006F6B005265736540
:101880006E643A200053544F505045442E2000506F
:1018900072696E7465722073746F70706564206411
:1018A000756520746F206572726F72732E204669A1
:1018B0007820746865206572726F7220616E642092
:1018C000757365204D39393920746F2072657374D2
:1018D0006172742E202854656D7065726174757222
:1018E000652069732072657365742E2053657420BA
:1018F00069742061667465722072657374617274B4
:10190000696E67290A004E6F20436865636B7375C3
:101910006D2077697468206C696E65206E756D62E4
:1019200065722C204C617374204C696E653A2000FE
:101930004E6F20436865636B73756D2077697468BB
:10194000206C696E65206E756D6265722C204C612D
:101950007374204C696E653A2000636865636B732D
:10196000756D206D69736D617463682C204C6173B3
:1019700074204C696E653A20004C696E65204E7586
:101980006D626572206973206E6F74204C61737490
:10199000204C696E65204E756D6265722B312C206E
:1019A0004C617374204C696E653A20004D313130C2
:1019B000004D3331005344207265616420657272BA
:1019C0006F720A00446F6E65207072696E74696E82
:1019D000672066696C650A0000002100240027006A
:1019E0002A0000002200250028002B000000200013
:1019F000230026002900020202020202020204045D
:101A000004040404040403030303030303030101A4
:101A100001010101010101020408102040800102BE
:101A200004081020408001020408102040808040FB
:101A3000201008040201000000010200090A000051
:101A40000000040308070000000000000000000080
:101A50000000000000004D6F766520302E303235DA
:101A60006D6D004D6F766520302E316D6D004D6FC0
:101A7000766520316D6D004D6F76652031306D6D6E
:101A8000004D6F7665206178697300486F74656EEC
:101A90006420746F6F20636F6C6400457874727596
:101AA000646572004D6F7665205A004D6F76652033
:101AB00059004D6F76652058004531204572723AC5
:101AC000204D415854454D50004572723A204D41C9
:101AD0005854454D5020424544004D415854454DC1
:101AE00050207472696767657265640045312045EE
:101AF00072723A204D494E54454D50004572723A2B
:101B0000204D494E54454D5020424544004D494ECC
:101B100054454D5020747269676765726564004D65
:101B2000383420582059205A204500202F002042C8
:101B3000403A0020403A000009121B242D363F484D
:101B4000415A536C657E7719100B023D342F265194
:101B500058434A757C676E323B2029161F040D7A64
:101B60007368615E574C452B2239300F061D146394
:101B70006A7178474E555C646D767F4049525B2CA4
:101B8000253E3708011A137D746F6659504B423554
:101B90003C272E1118030A565F444D727B60691E64
:101BA000170C053A3328214F465D546B6279700754
:101BB0000E151C232A31384148535A656C777E092B
:101BC000001B122D243F3658514A437C756E671016
:101BD00019020B343D262F737A6168575E454C3BE2
:101BE0003229201F160D046A6378714E475C552216
:101BF0002B3039060F141D252C373E0108131A6DA2
:101C0000647F7649405B523C352E2718110A0374D5
:101C10007D666F5059424B171E050C333A21285FE1
:101C2000564D447B7269600E071C152A23383146D5
:101C30004F545D626B70797C3C3E5E2B3D3F2F5B69
:101C40005D3B2C2A225C0057616E68616F2069330E
:101C50002052656164792E005072696E74696E67F6
:101C60002E2E2E005072696E74207061757365643B
:101C7000005072696E742061626F72746564000056
:101C80000048430000484300000C430000000000EF
:101C900000000000000000290A00206279746573CA
:101CA0003B20637263200053657474696E67732010
:101CB00053746F72656420280050726568656174A2
:101CC00020504C4120456E64005072656865617417
:101CD00020504C4120426564005072656865617413
:101CE00020504C410054656D706572617475726569
:101CF00000507265686561742041425320456E64EE
:101D000000507265686561742041425320426564E9
:101D10000050726568656174204142530054656DDE
:101D2000706572617475726500436F6F6C646F7774
:101D30006E005072656865617420414253005072B4
:101D4000656865617420504C410046616E20737077
:101D50006565640046616E20737065656400426568
:101D60006400426564004E6F7A7A6C65004E6F7A4B
:101D70007A6C65004D61696E00466C6F7700466C49
:101D80006F770046616E2073706565640046616E12
:101D90002073706565640042656400426564004EAE
:101DA0006F7A7A6C65004E6F7A7A6C650053706555
:101DB0006564005370656564004D61696E00256956
:101DC000730025696D2025697300256968202569E0
:101DD0006D202569730025696420256968202569BF
:101DE0006D2025697300256979202569642025699E
:101DF000682025696D202569730023646566696E16
:101E0000652044454641554C545F004B6420004BCF
:101E10006920004B702000504944204175746F7454
:101E2000756E652066696E697368656421205075FA
:101E30007420746865206C617374204B702C204B87
:101E40006920616E64204B6420636F6E7374616EF1
:101E500074732066726F6D2062656C6F7720696E97
:101E6000746F20436F6E66696775726174696F6E17
:101E70002E680A00504944204175746F74756E6570
:101E8000206661696C6564212074696D656F757485
:101E90000A00453120544845524D414C2052554E80
:101EA0004157415900546865726D616C2052756EDE
:101EB000617761790045312048656174696E6720FA
:101EC0006661696C65640048656174696E67206667
:101ED00061696C656400504944204175746F747584
:101EE0006E65206661696C6564212054656D70655E
:101EF00072617475726520746F6F20686967680A13
:101F000000204B643A2000204B693A2000204B709F
:101F10003A20000A20436C6173736963205049447E
:101F2000200A002054753A2000204B753A200020EA
:101F30006D61783A2000206D696E3A200020643A85
:101F4000200020626961733A2000504944204175A5
:101F5000746F74756E652073746172740A005049F1
:101F600044204175746F74756E65206661696C6597
:101F700064212054656D706572617475726520749A
:101F80006F6F20686967680A005049442041757482
:101F90006F74756E65206661696C656421204261AD
:101FA00064206578747275646572206E756D626503
:101FB000720A004572723A207574663820666F6E38
:101FC00074206E6F7420696E697469616C697A65DA
:101FD000642E004572723A207574663820666F6E02
:101FE00074206E6F7420696E697469616C697A65BA
:101FF000642E004572723A207574663820666F6EE2
:1020000074206E6F7420696E697469616C697A6599
:10201000642E0000060C00FE07022603BC017FFEB2
:1020200008FE08FE05080806000040F0C8888898E9
:102030007810050808060000C0F88888888888F8A5
:102040000505050600012030F830200508080600C7
:10205000002070F820202020E00509090600FF205C
:1020600070A8A8B888887020050606060001E08CD4
:10207000EA8C8A0A0509090600FFF8A8888888887A
:1020800088A8F8050A0A0600FE205050505088A87B
:10209000A8887003030306000340A040FFFFFFFF72
:1020A000FFFFFFFFFFFFFFFFFFFFFFFFFFFFFFFF40
:1020B000FFFF0000000605FF010707060200808001
:1020C0008080800080030303060105A0A0A0050610
:1020D0000606000050F85050F8500509090600FFA8
:1020E0002070A8A07028A87020050707060000C867
:1020F000C8102040989805070706000040A0A0409F
:10210000A890680103030602058080800309090680
:1021100001FF2040408080804040200309090601E3
:10212000FF80404020202040408005070706000037
:1021300020A8702070A8200505050600012020F8C1
:1021400020200203030601FFC040800501010600B4
:1021500003F8020202060100C0C0050707060000DE
:10216000081010204040800507070600007088987E
:10217000A8C8887003070706010040C040404040DF
:10218000E0050707060000708808102040F80507E2
:1021900007060000F80810300888700507070600D9
:1021A0000010305090F81010050707060000F88066
:1021B000F008088870050707060000304080F088A6
:1021C0008870050707060000F80810102020200579
:1021D0000707060000708888708888700507070662
:1021E000000070888878081060020505060100C0AC
:1021F000C000C0C00206060601FFC0C000C040808B
:102200000305050601012040804020050303060068
:1022100002F800F803050506010180402040800512
:102220000707060000708810202000200507070619
:1022300000007088B8A8B880700507070600007015
:102240008888F8888888050707060000F0484870E5
:102250004848F00507070600007088808080887075
:10226000050707060000F04848484848F0050707FA
:10227000060000F88080F08080F80507070600005F
:10228000F88080F080808005070706000070888055
:1022900080988870050707060000888888F8888875
:1022A00088030707060100E04040404040E0050782
:1022B0000706000038101010109060050707060090
:1022C000008890A0C0A090880507070600008080C5
:1022D00080808080F805070706000088D8A88888D5
:1022E00088880507070600008888C8A89888880598
:1022F0000707060000708888888888700507070629
:102300000000F08888F080808005070706000070D4
:10231000888888A89068050707060000F08888F07C
:10232000A0908805070706000070888070088870F4
:10233000050707060000F8202020202020050707B9
:1023400006000088888888888870050707060000CE
:1023500088888888505020050707060000888888EC
:1023600088A8A850050707060000888850205088D4
:1023700088050707060000888850202020200507D0
:1023800007060000F80810204080F803090906013C
:10239000FFE080808080808080E0050707060000E5
:1023A000804040201010080309090601FFE02020AA
:1023B0002020202020E0050303060005205088058A
:1023C00001010600FEF80303030601058040200515
:1023D00005050600007008788878050707060000E4
:1023E0008080F0888888F0050505060000708080F0
:1023F000887005070706000008087888888878052F
:1024000005050600007088F08070050707060000CB
:10241000304840E04040400507070600FE708888CD
:10242000887808700507070600008080F088888893
:10243000880307070601004000C0404040E004094F
:10244000090601FE100030101010109060050707FB
:1024500006000080808890E090880307070601004E
:10246000C04040404040E0050505060000D0A8A857
:10247000A8A8050505060000B0C8888888050505D8
:1024800006000070888888700507070600FEF0883F
:102490008888F080800507070600FE78888888789D
:1024A0000808050505060000B0C880808005050500
:1024B00006000078807008F005070706000020205D
:1024C000F8202020180505050600008888889868EF
:1024D00005050506000088888850200505050600CA
:1024E000008888A8A85005050506000088502050DF
:1024F000880507070600FE8888885020408005056B
:1025000005060000F8102040F80309090601FF2025
:1025100040404080404040200109090602FF808081
:10252000808080808080800309090601FF80404010
:1025300040204040408005030306000248A890FF69
:1025400056652D6A65726B0056652D6A65726B0063
:10255000567A2D6A65726B00567A2D6A65726B0029
:1025600056792D6A65726B0056792D6A65726B001B
:1025700056782D6A65726B0056782D6A65726B000D
:10258000416476616E6365642053657474696E6737
:1025900073004573746570732F6D6D0045737465BA
:1025A00070732F6D6D005A73746570732F6D6D00AD
:1025B0005A73746570732F6D6D0059737465707301
:1025C0002F6D6D005973746570732F6D6D005873A6
:1025D000746570732F6D6D005873746570732F6D13
:1025E0006D00416476616E6365642053657474693F
:1025F0006E6773003F00496E697469616C697A6542
:1026000020454550524F4D0043616E63656C004953
:102610006E6974004D34323800496E697469616CBA
:10262000697A6520454550524F4D0046696C616D91
:10263000656E740054656D706572617475726500C5
:1026400053746570732F6D6D004A65726B00416342
:1026500063656C65726174696F6E0056656C6F635B
:102660006974790053657420686F6D65206F6666C4
:102670007365747300436F6E666967757261746920
:102680006F6E0053746F72652073657474696E6742
:10269000730042656400426564004E6F7A7A6C652F
:1026A000004E6F7A7A6C650046616E2073706565C6
:1026B000640046616E20737065656400436F6E66EA
:1026C000696775726174696F6E00220A00556E6BDE
:1026D0006E6F776E20636F6D6D616E643A202200BD
:1026E00020746F6F206C6F6E6720657874727573DD
:1026F000696F6E2070726576656E7465640A00207D
:10270000636F6C6420657874727573696F6E207086
:10271000726576656E7465640A004572726F722028
:1027200077726974696E6720746F20454550524F07
:102730004D210A000F150E1216170E1303021A145C
:1027400001000E0C190DFF180C040001627573795D
:102750003A2070617573656420666F7220696E70CF
:1027600075740A00627573793A20706175736564D7
:1027700020666F7220757365720A00627573793A0C
:102780002070726F63657373696E670A004B494C02
:102790004C2063617573656420627920746F6F20CB
:1027A0006D75636820696E6163746976652074690C
:1027B0006D65202D2063757272656E7420636F6D78
:1027C0006D616E643A2000506C65617365207265BE
:1027D000736574005052494E5445522048414C5440
:1027E0004544004B494C4C45442E20005072696EC4
:1027F0007465722068616C7465642E206B696C6C02
:1028000028292063616C6C6564210A006563686F28
:102810003A004572726F723A00454550524F4D2052
:102820006461746173697A65206572726F722E0AD1
:1028300000290A002062797465733B20637263206B
:10284000002073746F7265642073657474696E67B9
:10285000732072657472696576656420280020288B
:1028600063616C63756C6174656429210A002021C1
:102870003D2000454550524F4D20435243206D6945
:10288000736D61746368202D202873746F726564A2
:102890002920002053697A653A2000496E646578E2
:1028A0003A2000204D61726C696E3D563637290A18
:1028B00000454550524F4D2076657273696F6E200A
:1028C0006D69736D617463682028454550524F4DA2
:1028D0003D0048617264636F6465642044656661AD
:1028E000756C742053657474696E6773204C6F61E6
:1028F0006465640A00BC020000BC020000640000C1
:10290000001027000000009643000096430000A03E
:10291000400000C8410000A0420000A0420000C8E2
:10292000430000C84220440020490020204D33309D
:10293000312050005049442073657474696E677388
:102940003A0A0020460020420020480020204D3155
:1029500034352053004D6174657269616C2068657F
:102960006174757020706172616D65746572733A1F
:102970000A00205A0020590020204D3230362058BD
:1029800000486F6D65206F66667365743A0A0020B3
:102990004500205A002059002058002054002053A0
:1029A0000020204D32303520420020453C6D6178BA
:1029B0005F655F6A65726B3E0020583C6D61785FB1
:1029C000785F6A65726B3E20593C6D61785F795F14
:1029D0006A65726B3E205A3C6D61785F7A5F6A650A
:1029E000726B3E00416476616E6365643A20423CDE
:1029F0006D696E5F7365676D656E745F74696D6533
:102A00005F75733E20533C6D696E5F6665656472E9
:102A10006174653E20543C6D696E5F7472617665C9
:102A20006C5F66656564726174653E0020540020C9
:102A3000520020204D323034205000416363656CD9
:102A400065726174696F6E2028756E6974732F7377
:102A500032293A20503C7072696E745F616363651D
:102A60006C3E20523C726574726163745F61636393
:102A7000656C3E20543C74726176656C5F61636383
:102A8000656C3E0A00204500205A00205900202095
:102A90004D3230312058004D6178696D756D20419F
:102AA0006363656C65726174696F6E2028756E6909
:102AB00074732F7332293A0A00204500205A0020EF
:102AC000590020204D3230332058004D6178696D17
:102AD000756D206665656472617465732028756E16
:102AE0006974732F73293A0A0053746570732070E8
:102AF000657220756E69743A0A0020204D323030BC
:102B00002044300A0020204D323030204400204440
:102B1000697361626C65640A0046696C616D656E1B
:102B2000742073657474696E67733A0020204D31A8
:102B300034392043203B20556E69747320696E2020
:102B400043656C736975730A0020286D6D29002038
:102B500020473231202020203B20556E697473209D
:102B6000696E206D6D005654726176206D696E003D
:102B70005654726176206D696E00566D696E00560E
:102B80006D696E00566D6178204500566D61782044
:102B90004500566D6178205A00566D6178205A00C4
:102BA000566D6178205900566D6178205900566D38
:102BB0006178205800566D61782058004164766134
:102BC0006E6365642053657474696E677300416D4C
:102BD0006178204500416D6178204500416D617844
:102BE000205A00416D6178205A00416D617820596A
:102BF00000416D6178205900416D61782058004195
:102C00006D6178205800412D74726176656C0041C9
:102C10002D74726176656C00412D7265747261630A
:102C20007400412D72657472616374004163636561
:102C30006C00416363656C00416476616E6365643A
:102C40002053657474696E67730053442063617226
:102C500064206F6B0A006F70656E526F6F74206630
:102C600061696C65640A00766F6C756D652E696EBE
:102C70006974206661696C65640A00534420696E5A
:102C80006974206661696C0A004D3234004D32333C
:102C90002025730057726974696E6720746F20660F
:102CA000696C653A20002E0A006F70656E206661BF
:102CB000696C65642C2046696C653A20002E0A0018
:102CC0006F70656E206661696C65642C2046696C66
:102CD000653A200046696C652073656C65637465B0
:102CE000640A002053697A653A200046696C6520C1
:102CF0006F70656E65643A20006672657368006483
:102D00006F696E67002066696C653A20004E6F77C8
:102D10002000454E4420535542524F5554494E458C
:102D20000A002220706F73002220706172656E7439
:102D30003A2200535542524F5554494E4520434183
:102D40004C4C207461726765743A22007472796920
:102D50006E6720746F2063616C6C207375622D67E1
:102D6000636F64652066696C657320776974682099
:102D7000746F6F206D616E79206C6576656C732E53
:102D8000204D4158206C6576656C2069733A310A94
:102D9000002E0A006F70656E206661696C65642C98
:102DA0002046696C653A2000000021104220633003
:102DB0008440A550C660E770088129914AA16BB193
:102DC0008CC1ADD1CEE1EFF131121002733252223B
:102DD000B5529442F772D662399318837BB35AA3E3
:102DE000BDD39CC3FFF3DEE362244334200401140B
:102DF000E664C774A44485546AA54BB52885099533
:102E0000EEE5CFF5ACC58DD55336722611163006DA
:102E1000D776F6669556B4465BB77AA71997388782
:102E2000DFF7FEE79DD7BCC7C448E5588668A7789A
:102E30004008611802282338CCC9EDD98EE9AFF9D2
:102E4000488969990AA92BB9F55AD44AB77A966A7A
:102E5000711A500A333A122AFDDBDCCBBFFB9EEB22
:102E6000799B588B3BBB1AABA66C877CE44CC55C4A
:102E7000222C033C600C411CAEED8FFDECCDCDDD72
:102E80002AAD0BBD688D499D977EB66ED55EF44E1A
:102E9000133E322E511E700E9FFFBEEFDDDFFCCFC2
:102EA0001BBF3AAF599F788F8891A981CAB1EBA116
:102EB0000CD12DC14EF16FE18010A100C230E32092
:102EC0000450254046706760B9839893FBA3DAB33A
:102ED0003DC31CD37FE35EF3B1029012F322D232E2
:102EE0003542145277625672EAB5CBA5A89589850A
:102EF0006EF54FE52CD50DC5E234C324A014810432
:102F00006674476424540544DBA7FAB79987B897D9
:102F10005FE77EF71DC73CD7D326F2369106B01681
:102F200057667676154634564CD96DC90EF92FE999
:102F3000C899E9898AB9ABA94458654806782768D1
:102F4000C018E1088238A3287DCB5CDB3FEB1EFB79
:102F5000F98BD89BBBAB9ABB754A545A376A167A21
:102F6000F10AD01AB32A923A2EFD0FED6CDD4DCD49
:102F7000AABD8BADE89DC98D267C076C645C454C71
:102F8000A23C832CE01CC10C1FEF3EFF5DCF7CDF19
:102F90009BAFBABFD98FF89F176E367E554E745EC1
:102FA000932EB23ED10EF01E6F70656E00545249E2
:102FB000474745524544003A20007A5F6D696E00EC
:102FC000795F6D696E00785F6D696E005265706F34
:102FD0007274696E6720656E6473746F70207374A9
:102FE000617475730A00205A3A0020593A00204350
:102FF0006F756E7420583A0020453A00205A3A0006
:1030000020593A00583A00486F6D696E6720666132
:10301000696C6564005761726E696E673A20486F2B
:103020006D696E672042756D702044697669736FB3
:1030300072203C20310A000202040000A04000007F
:10304000A04000000040000048430000484300004A
:103050000C434C6F61642073657474696E67730010
:10306000526573746F7265206661696C7361666521
:103070000053746F72652073657474696E677300B2
:10308000507265686561742041425320636F6E66BB
:10309000005072656865617420504C4120636F6E0A
:1030A0006600416476616E6365642053657474697B
:1030B0006E6773004D61696E003F0053746F70203E
:1030C0007072696E74004261636B0053746F7000BC
:1030D0004D3235005072696E74207061757365648D
:1030E000005061757365207072696E74004D3234E2
:1030F00000496E69742E2053442063617264004D50
:103100003231005072696E742066726F6D205344C4
:103110000052656C6561736520534420636172647D
:10312000004D323200436F6E666967757261746973
:103130006F6E0054656D7065726174757265004DD7
:103140006F74696F6E00526573756D65207072697A
:103150006E7400436172642072656C6561736564AE
:103160000054756E650053746F70207072696E74D0
:10317000005061757365207072696E7400496E66E7
:103180006F2073637265656E004D6F766520580021
:103190004D6F76652059004D6F7665205A00457851
:1031A0007472756465720045787472756465720036
:1031B0004D6F7665205A004D6F76652059004D6F32
:1031C00076652058004D6F74696F6E0044697361B5
:1031D000626C65207374657070657273004D38346D
:1031E000004175746F20686F6D6500473238004D7F
:1031F0006F76652061786973004D61696E003F00EC
:103200005374617274207072696E74200043616E31
:1032100063656C005072696E740043616E6E6F740A
:1032200020656E746572207375626469723A20005D
:10323000022E2E000152656672657368004D616949
:103240006E0043616E6E6F74206F70656E207375D3
:10325000626469722000626564002C207379737463
:10326000656D2073746F70706564212048656174AA
:1032700065725F49443A2000426564206865617464
:10328000696E67206661696C656400486561746990
:103290006E67206661696C6564004245442054484D
:1032A00045524D414C2052554E41574159005468AA
:1032B00065726D616C2052756E6177617900453180
:1032C0002048656174696E67206661696C65640099
:1032D00048656174696E67206661696C6564004564
:1032E0003120544845524D414C2052554E41574192
:1032F0005900546865726D616C2052756E6177611A
:103300007900202D20496E76616C6964206578749F
:103310007275646572206E756D62657220210A0097
:1033200070012C0190012701B0012201C0011D0193
:10333000F00118011002130130020E0160020901B0
:1033400090020401C002FF000003FA004003F500F0
:103350008003F000D003EB002004E6007004E100DD
:10336000E004DC004005D700C005D2004006CD00D7
:10337000D006C8008007C3003008BE00F008B900BE
:10338000C009B400B00AAF00B00BAA00D00CA50071
:10339000000EA000500F9B00C0109600501291002C
:1033A00000148C00C0158700B0178200B0197D0092
:1033B000D01B7800001E730040206E009022690030
:1033C000F024640040275F0090295A00E02B55004C
:1033D000102E500020304B0010324600E0334100E8
:1033E00090353C001037370070383200A0392D007E
:1033F000B03A2800A03B2300603C1E00103D19009D
:10340000903D1400103E0F00703E0A00C03E0500C3
:10341000003F0000403FFBFF803FF6FFC03FF1FF51
:10342000453120544845524D414C2052554E41574C
:1034300041590042454420544845524D414C205288
:10344000554E4157415900546865726D616C205268
:10345000756E61776179000082DA68DA11241FBE27
:10346000CFEFD0E4DEBFCDBF12E0A0E0B1E0E6E2F6
:10347000F0ED01E00BBF02C007900D92A834B10738
:10348000D9F72BE2A8E4B2E001C01D92AF32B20737
:10349000E1F71AE1CDE2DAE104C02197FE010E94D2
:1034A0005CE4CC32D107C9F70E944CD20C9406E8F8
:1034B0000C9400002F923F924F925F926F927F92F6
:1034C0008F929F92AF92BF92CF92DF92EF92FF9234
:1034D0000F931F93CF93DF93CDB7DEB7C555D109B7
:1034E0000FB6F894DEBF0FBECDBF2091F6026596F1
:1034F0002FAF659791E09093F6028091F5028D349D
:1035000009F431C7843511F40C948B30873411F0F1
:103510000C94A6302090F3023090F40234E023168D
:10352000310409F414C654F437FC19C780912701FB
:1035300052E0251631040CF0F8C02FC08AE5281699
:10354000310409F452C664F4B5E12B16310411F4C8
:103550000C94A830ECE12E16310409F436C6FFC6EF
:10356000FBE52F16310409F444C62CE5221631047C
:1035700009F0F5C64DE5242E41E0342E53EBE52E3F
:1035800052E0F52EA2EDB2E0B9A3A8A36FEBC62ED0
:1035900062E0D62E00E010E06CC6882311F40C9493
:1035A000A8300E949F5580912001882321F082EE4F
:1035B00092E00E9419B78091672483FD7DC0C0907E
:1035C000EE02D090EF02E090F002F090F102209134
:1035D000DE023091DF024091E0025091E102C7012A
:1035E000B6010E94C6DF882309F466C080918D1160
:1035F00081111FC06091921170919311809194116B
:10360000909195110E94DAE520914C0130914D0185
:103610006217730774F4C092DE02D092DF02E09268
:10362000E002F092E1020E94E89284EE96E00E94AD
:10363000C2928090EE029090EF02A090F002B090C3
:10364000F1022091DE023091DF024091E0025091C0
:10365000E102C501B4010E946DE46B017C0120E030
:1036600030E0A9010E94CEE687FF04C0F7FAF0948B
:10367000F7F8F094209148013091490140914A01B6
:1036800050914B01C701B6010E942CE020E030E0D0
:1036900048E453E40E94CEE6181674F48092DE02E9
:1036A0009092DF02A092E002B092E1020E94E892C2
:1036B00085EC96E00E94C2926091250170912601EE
:1036C000072E000C880B990B0E94CDDF2091210161
:1036D0003091220140912301509124010E942CE05D
:1036E0002AE037ED43E25CE30E942CE069837A83B1
:1036F0008B839C83C12CD12C76018E010F5F1F4FD1
:103700002EEE32E04AEE52E066EE72E082EE92E099
:103710000E94E39080E1E2EEF2E0A2EDB2E00190DF
:103720000D928A95E1F70C94A830882311F40C943B
:10373000A8300E949F5582E50E947F55882309F496
:1037400038C10E9403554B015C0120E030E0A90123
:103750000E94C6DF882309F4F2C48091D2029091BE
:10376000D302A091D402B091D50288A399A3AAA3B1
:10377000BBA32091D6023091D7024091D80250913C
:10378000D9022CA33DA34EA35FA38091E2029091A6
:10379000E302A091E402B091E50288AB99ABAAAB39
:1037A000BBAB2091E6023091E7024091E8025091D4
:1037B000E9022CA73DA74EA75FA79C01AD0168A118
:1037C00079A18AA19BA10E94C6DF81110DC02CA501
:1037D0003DA54EA55FA56CA17DA18EA19FA10E94D4
:1037E000C6DF882309F4ABC411E032E023163104AC
:1037F00009F010E020E030E0A901C501B4010E9409
:10380000C6DF881F8827881F181749F080E090E0DE
:10381000A0E8BFEB8CAB9DABAEABBFAB08C020E06C
:1038200030E040E85FE32CAB3DAB4EAB5FAB28A193
:1038300039A14AA15BA168A979A98AA99BA90E947B
:103840006DE468A779A78AA79BA72CA13DA14EA1EB
:103850005FA16CA57DA58EA59FA50E946DE46B015F
:103860007C0128A539A54AA55BA5CA01B9010E941A
:103870002CE02B013C01A7019601C701B6010E9473
:103880002CE09B01AC01C301B2010E946EE40E94D6
:103890001CE72B013C019B01AC0160E070E080E87B
:1038A0009FE30E9468E568AF79AF8AAF9BAF20E0E5
:1038B00030E040E05FE3C301B2010E942CE02B0145
:1038C0003C01A5019401C501B4010E942CE04B010B
:1038D0005C01A3019201C301B2010E942CE09B0193
:1038E000AC01C501B4010E946DE40E941CE72CA943
:1038F0003DA94EA95FA90E942CE04B015C01C701C4
:10390000B601905828AD39AD4AAD5BAD0E942CE0B0
:10391000A50194010E942CE06B017C0128A939A922
:103920004AA95BA968A179A18AA19BA10E946EE422
:1039300020E030E040E05FE30E942CE09B01AC011E
:10394000C701B6010E946EE428A139A14AA15BA17A
:103950000E946DE46B017C012CA53DA54EA55FA5E1
:103960006CA17DA18EA19FA10E946EE420E030E0B9
:1039700040E05FE30E942CE02B013C0128AD39AD13
:103980004AAD5BAD68A579A58AA59BA50E942CE0F0
:10399000A50194010E942CE09B01AC01C301B2017E
:1039A0000E946EE42CA13DA14EA15FA10E946DE496
:1039B00014C089E40E947F55882329F00E94035592
:1039C0006B017C0103C0C12CD12C76018AE40E94DA
:1039D0007F558823D9F00E94035568AB79AB8AAB39
:1039E0009BAB20E030E0A901C701B6010E94C6DF11
:1039F00081111AC020E030E0A90168A979A98AA93B
:103A00009BA90E94C6DF81110FC099C320E030E05E
:103A1000A901C701B6010E94C6DF882309F48FC33C
:103A200018AA19AA1AAA1BAAD701C601B05888A3B6
:103A300099A3AAA3BBA328A939A94AA95BA950584D
:103A40002CA33DA34EA35FA39C01AD01BC01CD01FE
:103A50000E942CE04B015C012CA13DA14EA15FA175
:103A6000CA01B9010E942CE09B01AC01C501B4015F
:103A70000E946EE40E941CE728966CAF7DAF8EAF6B
:103A80009FAF28978091D2029091D302A091D40247
:103A9000B091D5028CA79DA7AEA7BFA7A70196019D
:103AA000BC01CD010E946EE468AF79AF8AAF9BAFD5
:103AB0002091D6023091D7024091D8025091D9027C
:103AC0002CAB3DAB4EAB5FAB28A939A94AA95BA98A
:103AD0006CA97DA98EA99FA90E946EE42C966CAF5B
:103AE0007DAF8EAF9FAF2C978091E2029091E30261
:103AF000A091E402B091E5028CAF9DAFAEAFBFAF35
:103B000028AD39AD4AAD5BADBC01CD010E946DE47D
:103B10006B017C012091E6023091E7024091E802BE
:103B20005091E90224962CAF3DAF4EAF5FAF249782
:103B30002C962CAD3DAD4EAD5FAD2C9724966CAD63
:103B40007DAD8EAD9FAD24970E946DE44B015C016D
:103B50008091DA029091DB02A091DC02B091DD024B
:103B600060968CAF9DAFAEAFBFAF60979C01AD01CB
:103B70006091EA027091EB028091EC029091ED026B
:103B80000E946DE468A779A78AA79BA7A701960161
:103B900068A179A18AA19BA10E942CE02B013C0184
:103BA000A50194016CA17DA18EA19FA10E942CE092
:103BB0009B01AC01C301B2010E946EE42B013C01E8
:103BC000A501940168A179A18AA19BA10E942CE082
:103BD0004B015C01A70196016CA17DA18EA19FA163
:103BE0000E942CE09B01AC01C501B4010E946DE470
:103BF000A30192010E94EDE46B017C0120E030E022
:103C0000A9010E94C6DF87FF0AC02BED3FE049EC07
:103C100050E4C701B6010E946EE46B017C012BEDFC
:103C20003FE049EC50E4C701B6010E9468E520E09E
:103C300030E040EC51E40E942CE00E944CE50E94F0
:103C4000E1E58B01672B11F401E010E092E0291609
:103C5000310451F42BED3FE049EC50E4C701B601CB
:103C60000E946DE46B017C0120E030E0A901C701F6
:103C7000B6010E94C6DF811124C02CAD3DAD4EAD12
:103C80005FAD6CA57DA58EA59FA50E94C6DF8111A5
:103C900018C024962CAD3DAD4EAD5FAD24976CA9F8
:103CA0007DA98EA99FA90E94C6DF81110AC008E1E3
:103CB00010E0ABEDCA2EAFE0DA2EA9ECEA2EA0E4BC
:103CC000FA2EA701960128966CAD7DAD8EAD9FAD05
:103CD00028970E942CE04B015C0120E030E0A90114
:103CE00068A579A58AA59BA50E94C6DF8823D9F07F
:103CF000A5019401C501B4010E942CE04B015C01B7
:103D000028A539A54AA55BA5CA01B9010E942CE0E6
:103D10009B01AC01C501B4010E946EE40E941CE746
:103D20004B015C010DC020E030E0A901C501B401E8
:103D30000E94CEE687FF04C0B7FAB094B7F8B094FB
:103D40002FE632E143E85AE3C501B4010E94C6DF21
:103D500087FDE9C14090DE025090DF026090E002F2
:103D60007090E102C501B4010E9410E60E94E1E5F5
:103D70001B016017710708F41801B10180E090E0A1
:103D80000E94CBDF4B015C019B01AC01C701B60176
:103D90000E9468E56CA77DA78EA79FA7A501940147
:103DA00068A579A58AA59BA50E9468E528966CAFB1
:103DB0007DAF8EAF9FAF2897A30192016091EE0275
:103DC0007091EF028091F0029091F1020E946DE4F7
:103DD000A50194010E9468E564966CAF7DAF8EAF3B
:103DE0009FAF64972CA53DA54EA55FA5CA01B9015B
:103DF0000E942CE020E030E040E05FE30E942CE0F5
:103E00009B01AC0160E070E080E89FE30E946DE4FC
:103E10006CAF7DAF8EAF9FAF60962CAD3DAD4EAD1C
:103E20005FAD609729873A874B875C874D865E86B2
:103E30006F86788A6091250170912601072E000C0B
:103E4000880B990B0E94CDDF209121013091220136
:103E500040912301509124010E942CE02AE037ED8B
:103E600043E25CE30E942CE06C8F7D8F8E8F9F8FEE
:103E70000E94474F9B01AC0128533F4F4F4F5F4F6C
:103E800024962CAF3DAF4EAF5FAF249748A059A00A
:103E90006AA07BA041E050E059A748A759E15CAB7C
:103EA00088A599A58215930508F015C10E9415CF24
:103EB0000E94474FDC01CB0124962CAD3DAD4EADA9
:103EC0005FAD2497821B930BA40BB50BB7FD10C0FD
:103ED0000E94474F9B01AC0128533F4F4F4F5F4F0C
:103EE00024962CAF3DAF4EAF5FAF24970E949B93BB
:103EF0003CA931503CAB3323E9F12CA13DA14EA1AB
:103F00005FA16CAD7DAD8EAD9FAD0E942CE06B01CD
:103F10007C019201A3016CA57DA58EA59FA50E94A1
:103F20002CE0A70196010E946EE47B018C019201B6
:103F3000A3016CAD7DAD8EAD9FAD0E942CE04B0119
:103F40005C012CA13DA14EA15FA16CA57DA58EA514
:103F50009FA50E942CE09B01AC01C501B4010E9409
:103F60006DE42B013C01C701D8018CA39DA3AEA336
:103F7000BFA34FC048A559A5BA0180E090E00E94B8
:103F8000CBDF2CA53DA54EA55FA50E942CE04B01E3
:103F90005C010E9463E56B017C01C501B4010E94D4
:103FA0000EE74B015C01A701960168A179A18AA1E6
:103FB0009BA10E942CE02B013C0128A939A94AA908
:103FC0005BA9C501B4010E942CE0A30192010E94EB
:103FD0006EE42B013C01A501940168A179A18AA19D
:103FE0009BA10E942CE04B015C0128A939A94AA998
:103FF0005BA9C701B6010E942CE09B01AC01C50181
:10400000B4010E946DE46CA37DA38EA39FA359E12C
:104010005CAB9201A30168AD79AD8AAD9BAD0E9406
:104020006EE469837A838B839C832CA13DA14EA18E
:104030005FA12C966CAD7DAD8EAD9FAD2C970E948F
:104040006EE46D837E838F83988728962CAD3DAD7B
:104050004EAD5FAD289769857A858B859C850E94DA
:104060006EE469877A878B879C8764962CAD3DAD1B
:104070004EAD5FAD64976D857E858F8598890E9472
:104080006EE46D877E878F87988B809120018823CF
:1040900021F0CE0101960E9419B7C12CD12CF0E875
:1040A000EF2EFFE3FF2E8E01045E1F4F9E01235F64
:1040B0003F4FAE01475F5F4FBE016B5F7F4FCE0149
:1040C00001960E94E390882331F088A599A5019676
:1040D00099A788A7E5CE80E1E2EEF2E0DE01119635
:1040E00001900D928A95E1F7C12CD12CE0E8EE2EDB
:1040F000EFE3FE2E8E01045E1F4F9E01235F3F4FB4
:10410000AE01475F5F4FBE016B5F7F4FCE010196EF
:104110000E94E39080E1FE013196A2EDB2E00190B1
:104120000D928A95E1F70E94474F6093CE027093FB
:10413000CF028093D0029093D1020C94A8300E94B9
:10414000E4928FEA96E00E94C2920C94A83080E537
:104150000E947F55882329F00E94BF546B017C0187
:1041600003C0C12CD12C760183E50E947F558823A2
:1041700061F00E94035520E030E04AE754E40E94D9
:104180002CE00E94E1E56B017C010E94D2B380919A
:104190003D11811105C060E086EA96E00E94B26E92
:1041A0000E94474FC60ED71EE81EF91E0E94474FB9
:1041B000DC01CB018C199D09AE09BF09B7FD02C016
:1041C0000C94A8300E949B93F1CF8091CD02877010
:1041D000873011F00C94B03060E08FE40E948B5671
:1041E00081110C94A8300C94B0301092F2020C940F
:1041F000A8309093F2020C94A8300E9403552B0132
:104200003C01133049F0D6012D913D914D915C91C7
:104210000E946DE42B013C01E8A1F9A120813181CC
:1042200042815381C301B2010E946DE44B015C01E4
:104230002DEB37E346E855EB0E94CEE687FD21C023
:104240002DEB37E346E855E3C501B4010E94C6DF14
:104250001816BCF01F5FF4E0EF0EF11C28A139A185
:104260002C5F3F4F39A328A334E0C30ED11C143078
:1042700031F1F10181911F010E947F55882351F393
:10428000BCCF133051F44092DE025092DF026092B4
:10429000E0027092E10201E0DDCFA5019401D701B7
:1042A0006D917D918D919C910E946EE4F7016083E8
:1042B000718382839383812F0E94ABB7CBCF00237E
:1042C00009F449C0209188243091892440918A249E
:1042D00050918B246091DE027091DF028091E002A8
:1042E0009091E1020E942CE00E94DBE66093F727A8
:1042F0007093F8278093F9279093FA279091D52708
:104300008091D627981719F00E9474B324C00E9498
:10431000D2B380916F00982F927081FF05C0809179
:104320006F008D7F80936F004091F7275091F827A1
:104330006091F9277091FA274093AF025093B00231
:104340006093B1027093B202992329F080916F00BB
:10435000826080936F000E94FEB80C94A8300E9487
:10436000C3910C94A8308091F3029091F4028037AD
:10437000910509F44DC70CF0F4C08A32910509F497
:1043800038C40CF07AC08831910509F4D6C20CF01B
:1043900059C08231910511F40C94B92ABCF497FFED
:1043A00002C00C948830823091050CF431C24197E0
:1043B00011F00C94883060E08EE796E00E94B26EB7
:1043C0005E985E9815985E980C94A830853191059A
:1043D00009F495C254F5449711F00C9488308DE699
:1043E00096E00E94C29210929F0287EB97E20E9491
:1043F0004D5E8BE1E7EBF7E2DE01119601900D9245
:104400008A95E1F740E050E0BE016F5F7F4F80E0AA
:1044100090E00E948AC7CE0101960E94525E8EE50E
:1044200096E00E94C2920C94A8308631910509F45E
:104430006AC2479711F00C948830E091A102F09184
:10444000A2026EC28C31910509F4FDC23CF48A319E
:10445000910509F497C20CF47CC2A2C28E31910579
:1044600009F402C30CF4F9C28F31910509F4A1C318
:10447000809709F458C30C9488308535910511F460
:104480000C94EC2A0CF040C08E34910509F4EEC374
:104490007CF48C34910509F4D0C30CF0E3C38B3465
:1044A000910511F00C9488300E94333B0C94A83095
:1044B0008235910511F40C94B22AD4F4813591051A
:1044C00011F00C9488300E942ACC0E948F3B0E94ED
:1044D000D9B40E94309268EE73E080E090E00E94D0
:1044E000A05660E089E095E00E94B26E0C94A8307E
:1044F0008335910511F40C94B52A8435910511F496
:104500000C94B92A0C9488308B36910511F40C94D4
:10451000A82ABCF48836910509F43AC43CF48C35D9
:10452000910511F40C94052B0C9488308936910573
:1045300009F4B4C78A36910511F40C948A2A0C94B4
:1045400088308D36910509F447C40CF45CC68E366C
:10455000910509F401C68F36910509F410C60C9433
:104560008830833D910511F40C94322D0CF0DCC0A1
:104570008C38910509F475C60CF097C08537910504
:1045800011F40C94A82B0CF076C08237910511F42D
:104590000C94A32B0CF443C68337910511F00C94B3
:1045A00088308DE394E00E94C29260E08DE294E056
:1045B0000E94505460E088E194E00E94505461E011
:1045C00081E194E00E94505461E086E094E00E9412
:1045D000505461E086EF93E00E94505460E08DEE0D
:1045E00093E00E94505461E083EE93E00E945054A7
:1045F00060E089ED93E00E94505460E081ED93E02B
:104600000E94505460E083EC93E00E94505460E0BC
:1046100085EB93E00E94505460E086EA93E00E94AC
:10462000505460E088E993E00E94505460E082E8D2
:1046300093E00E94505460E081E793E00E94505460
:1046400060E082E693E00E94505460E08DE493E0E5
:104650000E94505461E08AE393E00E94505460E06D
:104660008DE293E00E94505460E089E193E00E9463
:1046700050540C94A8308737910511F40C94E32B17
:1046800014F40C94B02B8837910511F40C94E62B9C
:104690008937910511F00C9488301092CB0210925A
:1046A000CC020E942EBA0C94A830893C910511F4DA
:1046B0000C94952CBCF48B39910509F405C73CF496
:1046C0008139910511F40C94EE2B0C9488308E3BBB
:1046D000910509F4E0C5883C910511F40C94482C2F
:1046E0000C9488308C3C910511F40C94D72C3CF43C
:1046F0008B3C910511F40C94B82C0C9488308D3CB3
:10470000910511F40C94082D8E3C910511F00C9438
:1047100088305DE5C52E51E0D52E6DE4E62E62E0D1
:10472000F62E10E00C94202D8A3941E0940709F40C
:1047300073C584F58C32A1E09A0711F40C948A2E8B
:104740008CF48D3D910511F40C94E92D823E910578
:1047500011F40C943F2E8C3D910511F00C9488308F
:104760000C94DC2D8E32E1E09E0711F40C941E2F88
:1047700014F40C949F2E8F3221E0920711F40C94C4
:10478000622F8039914011F00C9488300E94D2B38E
:104790000C94A830873F41E0940711F40C945B30EF
:1047A000ECF4843FA1E09A0711F40C9455303CF4EA
:1047B0008C3A914011F40C94652F0C948830853F0D
:1047C000F1E09F0711F40C945830863F914011F0AE
:1047D0000C9488300E947E980C94A8308C3032E083
:1047E000930711F40C9472303CF4883F914011F41B
:1047F0000C9462300C948830803AA3E09A0709F454
:10480000C8C1873E934011F40C947A300C948830E0
:10481000A090A102B090A20280E50E947F5588235B
:1048200059F00E94BF546B017C0111E0672B682B8B
:10483000692B31F410E004C010E0C12CD12C7601BA
:1048400083E50E947F55882311F40C94B9310E94AE
:10485000035520E030E04AE754E40E942CE00E9437
:10486000E1E56B017C0111110BC0672B682B692BF3
:1048700039F4A114B10421F0F5018081811102C045
:1048800010E001C011E00E94D2B3112329F061E0D1
:10489000C5010E94FE6E05C060E087E896E00E94B8
:1048A000B26E83E08093F60281E08093A002C1148F
:1048B000D104E104F104B1F00E94474FC60ED71EA7
:1048C000E81EF91E0E94474FDC01CB018C199D099F
:1048D000AE09BF09B7FF0DC08091A00281110C94F1
:1048E000BE3107C08091A002882319F00E949B93DB
:1048F000F9CF0E94246F1092A0020C94A8300E945D
:1049000097AC0C94A8300E9485AA80919029877F4B
:10491000809390290C94A830803209F4108231964B
:1049200080818111F9CF40E061E08091A1029091F6
:10493000A2020E9494AA0C94A8300E94817D882330
:1049400021F00E94EAAB0E94333B0E94246F0C943A
:10495000A8308091902982FF03C08B7F809390299B
:1049600080919E02813089F782E080939E020E94AE
:10497000474F60939A0270939B0280939C0290939E
:104980009D02E3CF8091902983FD02C00C94A83052
:1049900083E50E947F5581110C94C2310C94A8309C
:1049A00083E40E943655882319F18CE296E00E9438
:1049B000C29280916127882391F0BE016F5F7F4F83
:1049C0008EE597E20E94145D8E010F5F1F4FD801A4
:1049D0008D918D01882339F00E947292F8CF82E286
:1049E00096E00E94C2928AE00E9472920C94A830D3
:1049F0008091902982FF21C08BE396E00E94C292B1
:104A000060918C2970918D2980918E2990918F29A8
:104A10004AE00E94A1968FE20E94729260918829DA
:104A20007091892980918A2990918B294AE00E946E
:104A3000A1960E94DB970C94A8308DE496E00E942A
:104A4000C2920C94A83040E060E08091A102909165
:104A5000A2020E9494AA0C94A830809190298E7F83
:104A6000809390290C94A8308091902983FD02C0F6
:104A70000C94A8300E94AC918091902983FD02C0D3
:104A80000C94A8306091A1027091A202CE014C96C4
:104A90000E94A4B08C01009711F40C94A8306C8D86
:104AA0007D8D19821C8222E0AC01CE0101960E940C
:104AB0002D61811102C0F12C14C0CE0101960E941B
:104AC00012B08823C1F361E0CE0101960E94F85C28
:104AD000009789F325EEFC0120831C820E9449C3C4
:104AE000F82ECE0101960E94525EB801FF2089F097
:104AF00084E196E00E94D1928AE00E947292109224
:104B00008C2910928D2910928E2910928F290C9445
:104B1000A8308CEF95E00E94D19289EF95E00E9439
:104B2000C2920C94A8308091902982FD0E94D2B349
:104B30008091902983FD02C00C94A83060E080E54C
:104B40000E948B56182F482F61E08091A10290910E
:104B5000A2020E9494AA83E50E947F55882381F0D7
:104B60000E94CF54AB01BC0140938C2950938D29F6
:104B700060938E2970938F298EE597E20E946FC50E
:104B80000E94EAAB11110C94A8300E94333B0C94A4
:104B9000A8302091A1023091A202909190299260B8
:104BA0009093902940E060E0C9010E9494AA0C947F
:104BB000A8300E943C696C8F7D8F8E8F9F8FBE01C5
:104BC0006F5F7F4FCE014C960E94A57C60E0CE01C6
:104BD00001960E94FE6E0E94E892BE016F5F7F4FB9
:104BE0008CEE95E00E94D1928AE00E9472920C9421
:104BF000A83083E50E947F55882311F40C94A830D7
:104C00000E94DF54F82E6BE170E080E50E94785638
:104C10008C0197FF02C00C94A830E82E60E089E474
:104C20000E948B5681110C94D331802F0E9443DA5D
:104C300081110C945C2E0C94D33180919E028130B2
:104C400011F00C94A83082E080939E020E94474F9E
:104C500060939A0270939B0280939C0290939D02B2
:104C60000C94A8300E948F3B0C94A83060E070E058
:104C700083E50E9478568E34910531F40E94003C01
:104C80000E94246F0C94A83085ED95E00E94C2929A
:104C900060918A0270918B028CEC95E00E941F97C4
:104CA00060918C0270918D028FEB95E00E941F97AE
:104CB00060918A0270918B0280918C0290918D029A
:104CC000681B790B80919E02815021E030E0823098
:104CD00010F020E030E0621B730B84EB95E00E9443
:104CE0001F978AE00E9472928CEA95E00E94C2921D
:104CF00080918E0290918F02A0919002B0919102CA
:104D00008C8F9D8FAE8FBF8FBE016F5F7F4FCE01A7
:104D10004C960E94A57CBE016F5F7F4F8FE995E0A6
:104D20000E94D1928091920290919302A09194025C
:104D3000B09195028C8F9D8FAE8FBF8FBE016F5F3C
:104D40007F4FCE014C960E94A57CBE016F5F7F4FC6
:104D50008FE895E00E94D19220E030E04AE754E4E9
:104D600060919602709197028091980290919902B9
:104D70000E9468E5AB01BC0187E795E00E94CA97F5
:104D80008DE60E9472928AE00E9472920C94A83082
:104D90008091672483FF02C00C94A8300E944F5674
:104DA00087FF02C00C94A83083E50E947F558823BA
:104DB00079F00E9403550E94DAE58B01CB010E9435
:104DC000C7620635110524F40E948F3B0E94246FB0
:104DD0000E941CD20C94A8308091672483FF02C0EB
:104DE0000C94A8300E944F5629968FAF299787FFC1
:104DF00002C00C94A83083E50E947F5588A38111DE
:104E000006C082E50E947F55182F8823C9F10E94B1
:104E100003550E94DAE5CB010E94C7620E94035548
:104E200020E030E04AEA52E40E94C6DF181614F48B
:104E30000C94E6310E948F3B0E94246F6091961182
:104E400070919711072E000C880B990B0E94CDDFF3
:104E50006B017C018090921190909311A09094111D
:104E6000B0909511A50194010E94CEE6181614F495
:104E70000C94F931F8A1FF2311F40C94EA3111E0FC
:104E80000E941CD2112311F40C94A83081E080936D
:104E90001F0118AA19AA1AAA1BAA1CAE1DAE1EAE83
:104EA0001FAE21E021962FAF21971CA22D961FAE99
:104EB0002D973CE325963FAF25974CE161964FAF88
:104EC000619756E466965FAF6697C12CD12C20E8B7
:104ED000E22E3FEBF32E812C912C54016091961120
:104EE00070919711072E000C880B990B0E94CDDF53
:104EF000162F072F782E692E9601A7010E94C6DF74
:104F00008823F1F0209192113091931140919411E6
:104F10005091951188A1612F702F811109C0872DA3
:104F2000962D0E94C6DF881F8827881F8CA30CC07F
:104F3000872D962D0E94C6DF87FDA8C21CA204C043
:104F40001C2D0D2D7E2C6F2C0E94474F6B017C0178
:104F5000DC01CB012CAD3DAD4EAD5FAD821B930BA3
:104F6000A40BB50BB7FD35C0D701C60188519C4FC6
:104F7000AF4FBF4F8CAF9DAFAEAFBFAF29968FADD8
:104F800029970E94D86289E595E00E94C292811417
:104F90009104A104B104B9F0D501C401805F984D1A
:104FA000AF4FBF4FBC01CD016C197D098E099F0920
:104FB00028EE33E040E050E00E94CDE3CA01B901A1
:104FC0000E942C9703C08FE30E9472928AE00E9495
:104FD00072920E949B930E94474F6093CE027093FF
:104FE000CF028093D0029093D102909192119CA70E
:104FF000A0919311A8A7B0919411BCABE091951129
:10500000E8AF292F3A2F4B2F5E2F612F702F872D5E
:10501000962D0E946DE41B012C0120E030E0A901D7
:105020000E94CEE687FF04C057FA509457F8509478
:1050300081149104A104B104C1F420E030E040E8FF
:105040005FE3C201B1010E94C6DF87FF1AC021964B
:10505000FFAD219746015701FF2399F020E1820E11
:1050600027E2921EA11CB11C0CC020E030E040E4FD
:1050700050E4C201B1010E94CEE6181614F44601B4
:1050800057013CA1332309F448C088A999A9AAA9CA
:10509000BBA9892B8A2B8B2B61F0D701C60128A9CC
:1050A00039A94AA95BA9821B930BA40BB50BB7FDC9
:1050B00034C02CA538A54CA958AD2D966FAD2D97B1
:1050C00025967FAD259761968FAD619766969FADCA
:1050D00066970E946DE420E030E040EC5FE30E94C0
:1050E000C6DF87FDD3C1D701C601805A9541AF4FB6
:1050F000BF4F88AB99ABAAABBBAB9CA52D969FAF1E
:105100002D97A8A52596AFAF2597BCA96196BFAFEF
:105110006197E8AD6696EFAF669780911F0188238F
:1051200009F4B4C181149104A104B10441F421969D
:105130001FAE2197C12ED02EE72CF62CCFCEF0E15A
:10514000CF1AF7E2DF0AE108F108C818D908EA081F
:10515000FB08F7FCECCF9AC18EE40E947F558823B0
:1051600011F40C94A8300E94CF546093860270937F
:10517000870280938802909389020C94A83083E57B
:105180000E943655882329F083E50E94D1918093AF
:1051900067240E94E89282E595E00E94C292809185
:1051A0006724882369F198E4E92E95E0F92E00E060
:1051B00010E020E08091672490E0A0E0B0E0002EB5
:1051C00004C0B695A795979587950A94D2F780FF66
:1051D0000EC0DD24D394D20E222319F08CE20E945B
:1051E0007292F701859194910E94C2922D2D0F5FCA
:1051F0001F4F32E0E30EF11C05301105D9F6F3CB59
:1052000084E495E0EECB1092A00210921F01A0C79B
:1052100080E090E00E94EC920E94D89199C783E5CB
:105220000E947F55882371F00E94DF54282F30E0C0
:105230002D3331051CF480931E018AC78CE38093C3
:105240001E0186C70E94E89240911E0150E060E076
:1052500070E08DE395E00E940E978AE00E947292C2
:1052600077C78091672483FD73C783E50E947F55CC
:10527000882309F46DC70E9403550E94DAE56A3558
:10528000710514F06AE570E0709384026093830204
:105290000E94A3CB5DC78091672483FD59C783E536
:1052A0000E947F5588AF811106C082E50E947F551C
:1052B000882309F44DC70E9403550E94DAE56A3538
:1052C000710514F00C94CB327093840260938302C6
:1052D0000E94A3CB0E94035520E030E040EA50E456
:1052E0000E94CEE6181614F40E94333B60918302AC
:1052F00070918402072E000C880B990B0E94CDDF61
:1053000020917F023091800240918102509182026F
:105310000E94CEE6181614F00C94FC318EE295E053
:1053200060E00E94B26E81E080931F011CA21DA26A
:105330001EA21FA22C961CAE1DAE1EAE1FAE2C9739
:1053400018A221961FAE21974CE32D964FAF2D97B3
:105350005CE125965FAF259786E461968FAF6197F4
:10536000C12CD12C00E8E02E8FEBF82E91E09CAF01
:10537000812C912C54016091830270918402072E3C
:10538000000C880B990B0E94CDDF162F072F782E6B
:10539000692E9601A7010E94C6DF882311F40C94A0
:1053A000073220917F02309180024091810250911A
:1053B0008202A8AD612F702F872D962DA1110C941C
:1053C00000320E94C6DF881F8827881F88A30E949A
:1053D000474F6B017C01DC01CB012C962CAD3DAD20
:1053E0004EAD5FAD2C97821B930BA40BB50BB7FD95
:1053F00002C00C940D320E949B930E94474F609311
:10540000CE027093CF028093D0029093D1029091FC
:105410007F0298ABA0918002ACA7B0918102B8A79F
:10542000E0918202ECAB292F3A2F4B2F5E2F612F98
:10543000702F872D962D0E946DE41B012C0120E01A
:1054400030E0A9010E94CEE687FF04C057FA5094CD
:1054500057F8509481149104A104B10411F00C94F4
:10546000533220E030E040E85FE3C201B1010E9426
:10547000C6DF87FF02C00C94443238A131110C946E
:10548000633280911F0181110C94B13280911F0110
:10549000882309F45DC60E94246F5AC60E944F56A5
:1054A000182F87FD0AC088E195E00E94C292812FE3
:1054B0000E94D8628AE00E94729265962FAD65972D
:1054C0002093F6020C94B03383E50E947F55882325
:1054D00009F43EC60E94DF54182F90E0CD970CF0DF
:1054E0001CE310937A020E94474F6B017C01212F2D
:1054F00030E0A8EEB3E00E94FAE3C60ED71EE81E25
:10550000F91EC0927602D0927702E0927802F09271
:1055100079021EC680E50E94D191811119C681E4ED
:105520000E943655882321F060917C1170E002C002
:105530006FEF70E083E50E948C558F3F910519F065
:1055400010F08FEF90E080937C118093750200C67D
:1055500080E50E94D1918111FBC510927C111092BF
:105560007502F6C510927402F3C581E0809374024F
:10557000EFC583E50E947F55882399F00E9403556B
:1055800020E030E04AE754E40E942CE00E94E1E58C
:1055900060931A0170931B0180931C0190931D016D
:1055A000D7C588E50E94365581110C94CF3289E524
:1055B0000E94365581110C94CF328AE50E943655EF
:1055C00081110C94CF3285E40E94365581110C94E0
:1055D000CF320E94D9B4BCC583E50E9436558823DA
:1055E00009F4B6C50E94035520E030E04AE754E4D0
:1055F0000E942CE00E94E1E560936C0270936D02C2
:1056000080936E0290936F02A3C50E944F5687FD50
:105610009FC59091680294FD04C090916A0297FF23
:105620000AC0BDE5CB2EB1E0DB2E18E6E12E14E278
:10563000F12E10E009C090916B02937091F7682FE2
:1056400081E00E94845484C5D6018D916D010E9431
:105650007F55882309F46DC0133009F063C00E94A0
:1056600003554B015C0120E030E040EA51E40E9428
:10567000C6DF87FF4EC0A501940160918824709118
:10568000892480918A2490918B240E9468E52B01C3
:105690003C019B01AC01609160117091611180919E
:1056A0006211909163110E942CE0609360117093DD
:1056B00061118093621190936311A3019201609133
:1056C00098247091992480919A2490919B240E940F
:1056D0002CE0609398247093992480939A2490935B
:1056E0009B24609170117091711180917211909151
:1056F00073110E94CBDFA30192010E942CE00E9453
:10570000E1E5609370117093711180937211909321
:1057100073118092882490928924A0928A24B09256
:105720008B2407C00E940355F701648B758B868B11
:10573000978B1F5FF4E0EF0EF11C143009F084CF5B
:105740000E944B3D05C50E94D2B30E94FEB800C521
:1057500060E08091A1029091A2020E94FE6EF8C4C6
:105760000091A1021091A20283E0F12C40E081504F
:10577000E9F0D8019C91292F2B7F2134C1F7119694
:105780002C912133A1F7913421F0953421F441E09B
:1057900002C0FF24F39498012E5F3F4F89012F5FD1
:1057A0003F4FF80190819032C9F3E1CF41110E943F
:1057B000E892FF2021F085E193E00E94C292C801A7
:1057C0000E94E197C5C40E940DBAC2C481E08093D3
:1057D000CB028093CC020E942EBABAC460E070E083
:1057E00083E50E9478568C011127023011053CF0A8
:1057F0000E94E49283EF92E00E94C292A9C488E4DE
:105800000E947F558823A1F00E94CF546A3A710507
:1058100034F0663F71052CF065EF70E002C06AEA73
:1058200070E0F801EE0FFF1FEC59FD4F71836083AC
:1058300086E40E947F55882381F00E94CF5477FD33
:1058400007C06F3F710529F024F06FEF70E001C0D1
:1058500060E0F801EE59FD4F608382E40E947F55BD
:10586000882309F475C40E94CF546530710534F063
:105870006B3571052CF06AE570E002C065E070E000
:10588000000F111FF801E25AFD4F7183608360C45D
:105890000E944F56182F87FD5BC484E40E94365542
:1058A000882309F43FC00E9403556B017C0101E08D
:1058B00020E030E0A9010E94C6DF811101C000E0B4
:1058C00000935D0220E030E0A901C701B6010E940B
:1058D000C6DF882339F10E94035524E01202F0014B
:1058E0001124E75AFD4F608371838283938320E004
:1058F00030E0A9016091590270915A0280915B02D7
:1059000090915C020E94C6DF81110CC080E090E0A3
:10591000A0EEBFE38093590290935A02A0935B02DA
:10592000B0935C020E94F7B213C40E944F5687FDE9
:105930000FC4EDE5EE2EE1E0FE2E08E614E2D701FD
:105940008D917D010E943655882349F00E940355B0
:105950000E94E1E5F80160837183828393830C5F89
:105960001F4FF4E208371F0751F70E942F3CF0C386
:105970000E944F5687FDECC37DE5E72E71E0F72EC0
:1059800008E614E2D7018D917D010E9436558823E7
:1059900039F00E940355F80164A375A386A397A369
:1059A0000C5F1F4FF4E208371F0761F7D1C38091E6
:1059B000690287FD19C680916A028E7009F014C6CB
:1059C00040919C2450919D2460919E2470919F242D
:1059D00083EE92E00E94CA974091A0245091A124A6
:1059E0006091A2247091A32480EE92E00E94CA9755
:1059F0004091A4245091A5246091A6247091A724DD
:105A00008DED92E00E94CA978AE00E947292A0C334
:105A100080916802827109F02DC680916A028C78AB
:105A200009F028C680916B02837009F023C690C3E9
:105A30001F5FF4E0EF0EF11C133011F40C94AB2156
:105A4000D6018D916D010E943655882389F30E94FD
:105A50000355F7016083718382839383812F0E94B2
:105A6000ABB7E6CF0E94E8928DEC92E00E94C29222
:105A700083E50E943655882321F00E94F3548093D9
:105A8000200180912001882319F08AEA92E002C067
:105A900086EA92E00E94C29285EC92E00E94C29255
:105AA0004090BF025090C0026090C1027090C2024C
:105AB00020910201309103014091040150910501B0
:105AC000C301B2010E946EE4AB01BC0183EC92E021
:105AD0000E94CA978090C3029090C402A090C50211
